{
  "_format": "hh-sol-artifact-1",
  "contractName": "VotingContract",
  "sourceName": "contracts/VotingContract.sol",
  "abi": [
    {
      "inputs": [],
      "stateMutability": "nonpayable",
      "type": "constructor"
    },
    {
      "anonymous": false,
      "inputs": [
        {
          "indexed": true,
          "internalType": "enum VotingContract.Post",
          "name": "post",
          "type": "uint8"
        },
        {
          "indexed": true,
          "internalType": "address",
          "name": "candidateAddress",
          "type": "address"
        },
        {
          "indexed": false,
          "internalType": "string",
          "name": "candidateName",
          "type": "string"
        }
      ],
      "name": "CandidateRegistered",
      "type": "event"
    },
    {
      "anonymous": false,
      "inputs": [
        {
          "indexed": false,
          "internalType": "string",
          "name": "message",
          "type": "string"
        }
      ],
      "name": "Error",
      "type": "event"
    },
    {
      "anonymous": false,
      "inputs": [
        {
          "indexed": true,
          "internalType": "enum VotingContract.Post",
          "name": "post",
          "type": "uint8"
        },
        {
          "indexed": true,
          "internalType": "address",
          "name": "winner",
          "type": "address"
        },
        {
          "indexed": false,
          "internalType": "uint256",
          "name": "votes",
          "type": "uint256"
        }
      ],
      "name": "ResultDeclared",
      "type": "event"
    },
    {
      "anonymous": false,
      "inputs": [
        {
          "indexed": true,
          "internalType": "enum VotingContract.Post",
          "name": "post",
          "type": "uint8"
        },
        {
          "indexed": true,
          "internalType": "address",
          "name": "voter",
          "type": "address"
        },
        {
          "indexed": true,
          "internalType": "address",
          "name": "candidate",
          "type": "address"
        },
        {
          "indexed": false,
          "internalType": "uint8",
          "name": "preference",
          "type": "uint8"
        }
      ],
      "name": "VoteCast",
      "type": "event"
    },
    {
      "anonymous": false,
      "inputs": [],
      "name": "VotingEnded",
      "type": "event"
    },
    {
      "anonymous": false,
      "inputs": [],
      "name": "VotingStarted",
      "type": "event"
    },
    {
      "inputs": [
        {
          "internalType": "enum VotingContract.Post",
          "name": "",
          "type": "uint8"
        },
        {
          "internalType": "uint256",
          "name": "",
          "type": "uint256"
        }
      ],
      "name": "candidateAddressesByPost",
      "outputs": [
        {
          "internalType": "address",
          "name": "",
          "type": "address"
        }
      ],
      "stateMutability": "view",
      "type": "function"
    },
    {
      "inputs": [
        {
          "internalType": "enum VotingContract.Post",
          "name": "",
          "type": "uint8"
        },
        {
          "internalType": "address",
          "name": "",
          "type": "address"
        }
      ],
      "name": "candidates",
      "outputs": [
        {
          "internalType": "string",
          "name": "name",
          "type": "string"
        },
        {
          "internalType": "bool",
          "name": "isRegistered",
          "type": "bool"
        },
        {
          "internalType": "uint256",
          "name": "voteCount",
          "type": "uint256"
        }
      ],
      "stateMutability": "view",
      "type": "function"
    },
    {
      "inputs": [
        {
          "internalType": "enum VotingContract.Post",
          "name": "post",
          "type": "uint8"
        }
      ],
      "name": "declareResult",
      "outputs": [
        {
          "internalType": "address",
          "name": "winner",
          "type": "address"
        },
        {
          "internalType": "uint256",
          "name": "votes",
          "type": "uint256"
        }
      ],
      "stateMutability": "view",
      "type": "function"
    },
    {
      "inputs": [],
      "name": "endVoting",
      "outputs": [],
      "stateMutability": "nonpayable",
      "type": "function"
    },
    {
      "inputs": [
        {
          "internalType": "address",
          "name": "",
          "type": "address"
        }
      ],
      "name": "isCandidateRegistered",
      "outputs": [
        {
          "internalType": "bool",
          "name": "",
          "type": "bool"
        }
      ],
      "stateMutability": "view",
      "type": "function"
    },
    {
      "inputs": [],
      "name": "owner",
      "outputs": [
        {
          "internalType": "address",
          "name": "",
          "type": "address"
        }
      ],
      "stateMutability": "view",
      "type": "function"
    },
    {
      "inputs": [
        {
          "internalType": "enum VotingContract.Post",
          "name": "post",
          "type": "uint8"
        },
        {
          "internalType": "string",
          "name": "name",
          "type": "string"
        }
      ],
      "name": "registerCandidate",
      "outputs": [],
      "stateMutability": "nonpayable",
      "type": "function"
    },
    {
      "inputs": [],
      "name": "registerVoter",
      "outputs": [],
      "stateMutability": "nonpayable",
      "type": "function"
    },
    {
      "inputs": [],
      "name": "startVoting",
      "outputs": [],
      "stateMutability": "nonpayable",
      "type": "function"
    },
    {
      "inputs": [
        {
          "internalType": "enum VotingContract.Post",
          "name": "post",
          "type": "uint8"
        },
        {
          "internalType": "address",
          "name": "firstPreference",
          "type": "address"
        },
        {
          "internalType": "address",
          "name": "secondPreference",
          "type": "address"
        },
        {
          "internalType": "address",
          "name": "thirdPreference",
          "type": "address"
        }
      ],
      "name": "vote",
      "outputs": [],
      "stateMutability": "nonpayable",
      "type": "function"
    },
    {
      "inputs": [
        {
          "internalType": "address",
          "name": "",
          "type": "address"
        }
      ],
      "name": "voters",
      "outputs": [
        {
          "internalType": "bool",
          "name": "isRegistered",
          "type": "bool"
        },
        {
          "internalType": "bool",
          "name": "hasVoted",
          "type": "bool"
        },
        {
          "internalType": "address",
          "name": "firstPreference",
          "type": "address"
        },
        {
          "internalType": "address",
          "name": "secondPreference",
          "type": "address"
        },
        {
          "internalType": "address",
          "name": "thirdPreference",
          "type": "address"
        }
      ],
      "stateMutability": "view",
      "type": "function"
    },
    {
      "inputs": [],
      "name": "votingEnded",
      "outputs": [
        {
          "internalType": "bool",
          "name": "",
          "type": "bool"
        }
      ],
      "stateMutability": "view",
      "type": "function"
    },
    {
      "inputs": [],
      "name": "votingStarted",
      "outputs": [
        {
          "internalType": "bool",
          "name": "",
          "type": "bool"
        }
      ],
      "stateMutability": "view",
      "type": "function"
    }
  ],
  "bytecode": "0x608060405234801561001057600080fd5b50336000806101000a81548173ffffffffffffffffffffffffffffffffffffffff021916908373ffffffffffffffffffffffffffffffffffffffff1602179055506128ac806100606000396000f3fe608060405234801561001057600080fd5b50600436106100cf5760003560e01c80638da5cb5b1161008c578063ad9fb72111610066578063ad9fb7211461021b578063c3403ddf14610237578063ecb617d914610241578063f1ecdc581461024b576100cf565b80638da5cb5b146101ab5780639d5a0529146101c9578063a3ec138d146101e7576100cf565b80631ec6b60a146100d4578063299573d4146100de5780634c257dfd146100fa57806383d948b71461012c57806384027b821461014a57806388dced121461017a575b600080fd5b6100dc61027b565b005b6100f860048036038101906100f3919061183d565b6103a2565b005b610114600480360381019061010f91906118a4565b610db7565b604051610123939291906119a8565b60405180910390f35b610134610e83565b60405161014191906119e6565b60405180910390f35b610164600480360381019061015f9190611a2d565b610e96565b6040516101719190611a7c565b60405180910390f35b610194600480360381019061018f9190611a97565b610ee4565b6040516101a2929190611ac4565b60405180910390f35b6101b3611069565b6040516101c09190611a7c565b60405180910390f35b6101d161108d565b6040516101de91906119e6565b60405180910390f35b61020160048036038101906101fc9190611aed565b6110a0565b604051610212959493929190611b1a565b60405180910390f35b61023560048036038101906102309190611ca2565b611150565b005b61023f6114f0565b005b610249611649565b005b61026560048036038101906102609190611aed565b611786565b60405161027291906119e6565b60405180910390f35b60008054906101000a900473ffffffffffffffffffffffffffffffffffffffff1673ffffffffffffffffffffffffffffffffffffffff163373ffffffffffffffffffffffffffffffffffffffff1614610309576040517f08c379a000000000000000000000000000000000000000000000000000000000815260040161030090611d70565b60405180910390fd5b600060149054906101000a900460ff1615610359576040517f08c379a000000000000000000000000000000000000000000000000000000000815260040161035090611ddc565b60405180910390fd5b6001600060146101000a81548160ff0219169083151502179055507f877e2548498f42b7975a186b94ef1d32c86d420b7b806dd2be2bea293b89590460405160405180910390a1565b600460003373ffffffffffffffffffffffffffffffffffffffff1673ffffffffffffffffffffffffffffffffffffffff16815260200190815260200160002060000160009054906101000a900460ff16610431576040517f08c379a000000000000000000000000000000000000000000000000000000000815260040161042890611e48565b60405180910390fd5b600060149054906101000a900460ff16801561045a5750600060159054906101000a900460ff16155b610499576040517f08c379a000000000000000000000000000000000000000000000000000000000815260040161049090611eb4565b60405180910390fd5b600460003373ffffffffffffffffffffffffffffffffffffffff1673ffffffffffffffffffffffffffffffffffffffff16815260200190815260200160002060000160019054906101000a900460ff1615610529576040517f08c379a000000000000000000000000000000000000000000000000000000000815260040161052090611f20565b60405180910390fd5b600073ffffffffffffffffffffffffffffffffffffffff168373ffffffffffffffffffffffffffffffffffffffff1603610598576040517f08c379a000000000000000000000000000000000000000000000000000000000815260040161058f90611f8c565b60405180910390fd5b600160008560048111156105af576105ae611fac565b5b60048111156105c1576105c0611fac565b5b815260200190815260200160002060008473ffffffffffffffffffffffffffffffffffffffff1673ffffffffffffffffffffffffffffffffffffffff16815260200190815260200160002060010160009054906101000a900460ff1661065c576040517f08c379a00000000000000000000000000000000000000000000000000000000081526004016106539061204d565b60405180910390fd5b6001600085600481111561067357610672611fac565b5b600481111561068557610684611fac565b5b815260200190815260200160002060008373ffffffffffffffffffffffffffffffffffffffff1673ffffffffffffffffffffffffffffffffffffffff16815260200190815260200160002060010160009054906101000a900460ff16806107185750600073ffffffffffffffffffffffffffffffffffffffff168273ffffffffffffffffffffffffffffffffffffffff16145b610757576040517f08c379a000000000000000000000000000000000000000000000000000000000815260040161074e906120df565b60405180910390fd5b6001600085600481111561076e5761076d611fac565b5b60048111156107805761077f611fac565b5b815260200190815260200160002060008273ffffffffffffffffffffffffffffffffffffffff1673ffffffffffffffffffffffffffffffffffffffff16815260200190815260200160002060010160009054906101000a900460ff16806108135750600073ffffffffffffffffffffffffffffffffffffffff168173ffffffffffffffffffffffffffffffffffffffff16145b610852576040517f08c379a000000000000000000000000000000000000000000000000000000000815260040161084990612171565b60405180910390fd5b6001600460003373ffffffffffffffffffffffffffffffffffffffff1673ffffffffffffffffffffffffffffffffffffffff16815260200190815260200160002060000160016101000a81548160ff02191690831515021790555082600460003373ffffffffffffffffffffffffffffffffffffffff1673ffffffffffffffffffffffffffffffffffffffff16815260200190815260200160002060000160026101000a81548173ffffffffffffffffffffffffffffffffffffffff021916908373ffffffffffffffffffffffffffffffffffffffff16021790555081600460003373ffffffffffffffffffffffffffffffffffffffff1673ffffffffffffffffffffffffffffffffffffffff16815260200190815260200160002060010160006101000a81548173ffffffffffffffffffffffffffffffffffffffff021916908373ffffffffffffffffffffffffffffffffffffffff16021790555080600460003373ffffffffffffffffffffffffffffffffffffffff1673ffffffffffffffffffffffffffffffffffffffff16815260200190815260200160002060020160006101000a81548173ffffffffffffffffffffffffffffffffffffffff021916908373ffffffffffffffffffffffffffffffffffffffff160217905550600560016000866004811115610a4957610a48611fac565b5b6004811115610a5b57610a5a611fac565b5b815260200190815260200160002060008573ffffffffffffffffffffffffffffffffffffffff1673ffffffffffffffffffffffffffffffffffffffff1681526020019081526020016000206002016000828254610ab891906121c0565b92505081905550600073ffffffffffffffffffffffffffffffffffffffff168273ffffffffffffffffffffffffffffffffffffffff1614610b8357600360016000866004811115610b0c57610b0b611fac565b5b6004811115610b1e57610b1d611fac565b5b815260200190815260200160002060008473ffffffffffffffffffffffffffffffffffffffff1673ffffffffffffffffffffffffffffffffffffffff1681526020019081526020016000206002016000828254610b7b91906121c0565b925050819055505b600073ffffffffffffffffffffffffffffffffffffffff168173ffffffffffffffffffffffffffffffffffffffff1614610c46576001806000866004811115610bcf57610bce611fac565b5b6004811115610be157610be0611fac565b5b815260200190815260200160002060008373ffffffffffffffffffffffffffffffffffffffff1673ffffffffffffffffffffffffffffffffffffffff1681526020019081526020016000206002016000828254610c3e91906121c0565b925050819055505b8273ffffffffffffffffffffffffffffffffffffffff163373ffffffffffffffffffffffffffffffffffffffff16856004811115610c8757610c86611fac565b5b7f4eadcb1a17bca02e8572a41b513d8b075d03f5d37ee6f8aea2eb59afc395a6ed6001604051610cb79190612246565b60405180910390a48173ffffffffffffffffffffffffffffffffffffffff163373ffffffffffffffffffffffffffffffffffffffff16856004811115610d0057610cff611fac565b5b7f4eadcb1a17bca02e8572a41b513d8b075d03f5d37ee6f8aea2eb59afc395a6ed6002604051610d30919061229c565b60405180910390a48073ffffffffffffffffffffffffffffffffffffffff163373ffffffffffffffffffffffffffffffffffffffff16856004811115610d7957610d78611fac565b5b7f4eadcb1a17bca02e8572a41b513d8b075d03f5d37ee6f8aea2eb59afc395a6ed6003604051610da991906122f2565b60405180910390a450505050565b600160205281600052604060002060205280600052604060002060009150915050806000018054610de79061233c565b80601f0160208091040260200160405190810160405280929190818152602001828054610e139061233c565b8015610e605780601f10610e3557610100808354040283529160200191610e60565b820191906000526020600020905b815481529060010190602001808311610e4357829003601f168201915b5050505050908060010160009054906101000a900460ff16908060020154905083565b600060149054906101000a900460ff1681565b60026020528160005260406000208181548110610eb257600080fd5b906000526020600020016000915091509054906101000a900473ffffffffffffffffffffffffffffffffffffffff1681565b600080600060159054906101000a900460ff16610f36576040517f08c379a0000000000000000000000000000000000000000000000000000000008152600401610f2d906123b9565b60405180910390fd5b600060026000856004811115610f4f57610f4e611fac565b5b6004811115610f6157610f60611fac565b5b8152602001908152602001600020905060005b8180549050811015611062576000828281548110610f9557610f946123d9565b5b9060005260206000200160009054906101000a900473ffffffffffffffffffffffffffffffffffffffff169050600060016000886004811115610fdb57610fda611fac565b5b6004811115610fed57610fec611fac565b5b815260200190815260200160002060008373ffffffffffffffffffffffffffffffffffffffff1673ffffffffffffffffffffffffffffffffffffffff1681526020019081526020016000206002015490508481111561104d578094508195505b5050808061105a90612408565b915050610f74565b5050915091565b60008054906101000a900473ffffffffffffffffffffffffffffffffffffffff1681565b600060159054906101000a900460ff1681565b60046020528060005260406000206000915090508060000160009054906101000a900460ff16908060000160019054906101000a900460ff16908060000160029054906101000a900473ffffffffffffffffffffffffffffffffffffffff16908060010160009054906101000a900473ffffffffffffffffffffffffffffffffffffffff16908060020160009054906101000a900473ffffffffffffffffffffffffffffffffffffffff16905085565b600060149054906101000a900460ff16156111a0576040517f08c379a000000000000000000000000000000000000000000000000000000000815260040161119790611ddc565b60405180910390fd5b600060048111156111b4576111b3611fac565b5b8260048111156111c7576111c6611fac565b5b101580156111f957506004808111156111e3576111e2611fac565b5b8260048111156111f6576111f5611fac565b5b11155b611238576040517f08c379a000000000000000000000000000000000000000000000000000000000815260040161122f9061249c565b60405180910390fd5b600360003373ffffffffffffffffffffffffffffffffffffffff1673ffffffffffffffffffffffffffffffffffffffff16815260200190815260200160002060009054906101000a900460ff16156112c5576040517f08c379a00000000000000000000000000000000000000000000000000000000081526004016112bc9061252e565b60405180910390fd5b60405180606001604052808281526020016001151581526020016000815250600160008460048111156112fb576112fa611fac565b5b600481111561130d5761130c611fac565b5b815260200190815260200160002060003373ffffffffffffffffffffffffffffffffffffffff1673ffffffffffffffffffffffffffffffffffffffff168152602001908152602001600020600082015181600001908161136d91906126f0565b5060208201518160010160006101000a81548160ff02191690831515021790555060408201518160020155905050600260008360048111156113b2576113b1611fac565b5b60048111156113c4576113c3611fac565b5b8152602001908152602001600020339080600181540180825580915050600190039060005260206000200160009091909190916101000a81548173ffffffffffffffffffffffffffffffffffffffff021916908373ffffffffffffffffffffffffffffffffffffffff1602179055506001600360003373ffffffffffffffffffffffffffffffffffffffff1673ffffffffffffffffffffffffffffffffffffffff16815260200190815260200160002060006101000a81548160ff0219169083151502179055503373ffffffffffffffffffffffffffffffffffffffff168260048111156114b5576114b4611fac565b5b7f4f29004f49af8a91459d51be1f26e1e462ee95642008e86940f377ed23be5068836040516114e491906127c2565b60405180910390a35050565b60008054906101000a900473ffffffffffffffffffffffffffffffffffffffff1673ffffffffffffffffffffffffffffffffffffffff163373ffffffffffffffffffffffffffffffffffffffff161461157e576040517f08c379a000000000000000000000000000000000000000000000000000000000815260040161157590611d70565b60405180910390fd5b600060149054906101000a900460ff1680156115a75750600060159054906101000a900460ff16155b6115e6576040517f08c379a00000000000000000000000000000000000000000000000000000000081526004016115dd90611eb4565b60405180910390fd5b6001600060156101000a81548160ff02191690831515021790555060008060146101000a81548160ff0219169083151502179055507f7a19ed057db79e3c2fa0b97a54b43bef4fce74b31bb6c01af514b9a18a7f70ab60405160405180910390a1565b600060149054906101000a900460ff1615611699576040517f08c379a000000000000000000000000000000000000000000000000000000000815260040161169090611ddc565b60405180910390fd5b600460003373ffffffffffffffffffffffffffffffffffffffff1673ffffffffffffffffffffffffffffffffffffffff16815260200190815260200160002060000160009054906101000a900460ff1615611729576040517f08c379a000000000000000000000000000000000000000000000000000000000815260040161172090612856565b60405180910390fd5b6001600460003373ffffffffffffffffffffffffffffffffffffffff1673ffffffffffffffffffffffffffffffffffffffff16815260200190815260200160002060000160006101000a81548160ff021916908315150217905550565b60036020528060005260406000206000915054906101000a900460ff1681565b6000604051905090565b600080fd5b600080fd5b600581106117c757600080fd5b50565b6000813590506117d9816117ba565b92915050565b600073ffffffffffffffffffffffffffffffffffffffff82169050919050565b600061180a826117df565b9050919050565b61181a816117ff565b811461182557600080fd5b50565b60008135905061183781611811565b92915050565b60008060008060808587031215611857576118566117b0565b5b6000611865878288016117ca565b945050602061187687828801611828565b935050604061188787828801611828565b925050606061189887828801611828565b91505092959194509250565b600080604083850312156118bb576118ba6117b0565b5b60006118c9858286016117ca565b92505060206118da85828601611828565b9150509250929050565b600081519050919050565b600082825260208201905092915050565b60005b8381101561191e578082015181840152602081019050611903565b60008484015250505050565b6000601f19601f8301169050919050565b6000611946826118e4565b61195081856118ef565b9350611960818560208601611900565b6119698161192a565b840191505092915050565b60008115159050919050565b61198981611974565b82525050565b6000819050919050565b6119a28161198f565b82525050565b600060608201905081810360008301526119c2818661193b565b90506119d16020830185611980565b6119de6040830184611999565b949350505050565b60006020820190506119fb6000830184611980565b92915050565b611a0a8161198f565b8114611a1557600080fd5b50565b600081359050611a2781611a01565b92915050565b60008060408385031215611a4457611a436117b0565b5b6000611a52858286016117ca565b9250506020611a6385828601611a18565b9150509250929050565b611a76816117ff565b82525050565b6000602082019050611a916000830184611a6d565b92915050565b600060208284031215611aad57611aac6117b0565b5b6000611abb848285016117ca565b91505092915050565b6000604082019050611ad96000830185611a6d565b611ae66020830184611999565b9392505050565b600060208284031215611b0357611b026117b0565b5b6000611b1184828501611828565b91505092915050565b600060a082019050611b2f6000830188611980565b611b3c6020830187611980565b611b496040830186611a6d565b611b566060830185611a6d565b611b636080830184611a6d565b9695505050505050565b600080fd5b600080fd5b7f4e487b7100000000000000000000000000000000000000000000000000000000600052604160045260246000fd5b611baf8261192a565b810181811067ffffffffffffffff82111715611bce57611bcd611b77565b5b80604052505050565b6000611be16117a6565b9050611bed8282611ba6565b919050565b600067ffffffffffffffff821115611c0d57611c0c611b77565b5b611c168261192a565b9050602081019050919050565b82818337600083830152505050565b6000611c45611c4084611bf2565b611bd7565b905082815260208101848484011115611c6157611c60611b72565b5b611c6c848285611c23565b509392505050565b600082601f830112611c8957611c88611b6d565b5b8135611c99848260208601611c32565b91505092915050565b60008060408385031215611cb957611cb86117b0565b5b6000611cc7858286016117ca565b925050602083013567ffffffffffffffff811115611ce857611ce76117b5565b5b611cf485828601611c74565b9150509250929050565b7f4f6e6c7920746865206f776e65722063616e2063616c6c20746869732066756e60008201527f6374696f6e000000000000000000000000000000000000000000000000000000602082015250565b6000611d5a6025836118ef565b9150611d6582611cfe565b604082019050919050565b60006020820190508181036000830152611d8981611d4d565b9050919050565b7f566f74696e672068617320616c72656164792073746172746564000000000000600082015250565b6000611dc6601a836118ef565b9150611dd182611d90565b602082019050919050565b60006020820190508181036000830152611df581611db9565b9050919050565b7f596f7520617265206e6f742061207265676973746572656420766f7465720000600082015250565b6000611e32601e836118ef565b9150611e3d82611dfc565b602082019050919050565b60006020820190508181036000830152611e6181611e25565b9050919050565b7f566f74696e67206973206e6f7420696e2070726f677265737300000000000000600082015250565b6000611e9e6019836118ef565b9150611ea982611e68565b602082019050919050565b60006020820190508181036000830152611ecd81611e91565b9050919050565b7f596f75206861766520616c7265616479206361737420796f757220766f746500600082015250565b6000611f0a601f836118ef565b9150611f1582611ed4565b602082019050919050565b60006020820190508181036000830152611f3981611efd565b9050919050565b7f496e76616c69642063616e646964617465206164647265737300000000000000600082015250565b6000611f766019836118ef565b9150611f8182611f40565b602082019050919050565b60006020820190508181036000830152611fa581611f69565b9050919050565b7f4e487b7100000000000000000000000000000000000000000000000000000000600052602160045260246000fd5b7f466972737420707265666572656e63652063616e646964617465206973206e6f60008201527f7420726567697374657265640000000000000000000000000000000000000000602082015250565b6000612037602c836118ef565b915061204282611fdb565b604082019050919050565b600060208201905081810360008301526120668161202a565b9050919050565b7f5365636f6e6420707265666572656e63652063616e646964617465206973206e60008201527f6f74207265676973746572656400000000000000000000000000000000000000602082015250565b60006120c9602d836118ef565b91506120d48261206d565b604082019050919050565b600060208201905081810360008301526120f8816120bc565b9050919050565b7f546869726420707265666572656e63652063616e646964617465206973206e6f60008201527f7420726567697374657265640000000000000000000000000000000000000000602082015250565b600061215b602c836118ef565b9150612166826120ff565b604082019050919050565b6000602082019050818103600083015261218a8161214e565b9050919050565b7f4e487b7100000000000000000000000000000000000000000000000000000000600052601160045260246000fd5b60006121cb8261198f565b91506121d68361198f565b92508282019050808211156121ee576121ed612191565b5b92915050565b6000819050919050565b600060ff82169050919050565b6000819050919050565b600061223061222b612226846121f4565b61220b565b6121fe565b9050919050565b61224081612215565b82525050565b600060208201905061225b6000830184612237565b92915050565b6000819050919050565b600061228661228161227c84612261565b61220b565b6121fe565b9050919050565b6122968161226b565b82525050565b60006020820190506122b1600083018461228d565b92915050565b6000819050919050565b60006122dc6122d76122d2846122b7565b61220b565b6121fe565b9050919050565b6122ec816122c1565b82525050565b600060208201905061230760008301846122e3565b92915050565b7f4e487b7100000000000000000000000000000000000000000000000000000000600052602260045260246000fd5b6000600282049050600182168061235457607f821691505b6020821081036123675761236661230d565b5b50919050565b7f566f74696e67206973207374696c6c20696e2070726f67726573730000000000600082015250565b60006123a3601b836118ef565b91506123ae8261236d565b602082019050919050565b600060208201905081810360008301526123d281612396565b9050919050565b7f4e487b7100000000000000000000000000000000000000000000000000000000600052603260045260246000fd5b60006124138261198f565b91507fffffffffffffffffffffffffffffffffffffffffffffffffffffffffffffffff820361244557612444612191565b5b600182019050919050565b7f496e76616c696420706f73740000000000000000000000000000000000000000600082015250565b6000612486600c836118ef565b915061249182612450565b602082019050919050565b600060208201905081810360008301526124b581612479565b9050919050565b7f596f75206861766520616c72656164792072656769737465726564206173206160008201527f2063616e64696461746500000000000000000000000000000000000000000000602082015250565b6000612518602a836118ef565b9150612523826124bc565b604082019050919050565b600060208201905081810360008301526125478161250b565b9050919050565b60008190508160005260206000209050919050565b60006020601f8301049050919050565b600082821b905092915050565b6000600883026125b07fffffffffffffffffffffffffffffffffffffffffffffffffffffffffffffffff82612573565b6125ba8683612573565b95508019841693508086168417925050509392505050565b60006125ed6125e86125e38461198f565b61220b565b61198f565b9050919050565b6000819050919050565b612607836125d2565b61261b612613826125f4565b848454612580565b825550505050565b600090565b612630612623565b61263b8184846125fe565b505050565b5b8181101561265f57612654600082612628565b600181019050612641565b5050565b601f8211156126a4576126758161254e565b61267e84612563565b8101602085101561268d578190505b6126a161269985612563565b830182612640565b50505b505050565b600082821c905092915050565b60006126c7600019846008026126a9565b1980831691505092915050565b60006126e083836126b6565b9150826002028217905092915050565b6126f9826118e4565b67ffffffffffffffff81111561271257612711611b77565b5b61271c825461233c565b612727828285612663565b600060209050601f83116001811461275a5760008415612748578287015190505b61275285826126d4565b8655506127ba565b601f1984166127688661254e565b60005b828110156127905784890151825560018201915060208501945060208101905061276b565b868310156127ad57848901516127a9601f8916826126b6565b8355505b6001600288020188555050505b505050505050565b600060208201905081810360008301526127dc818461193b565b905092915050565b7f596f752061726520616c72656164792061207265676973746572656420766f7460008201527f6572000000000000000000000000000000000000000000000000000000000000602082015250565b60006128406022836118ef565b915061284b826127e4565b604082019050919050565b6000602082019050818103600083015261286f81612833565b905091905056fea26469706673582212204915e983558109002ad8c6a0bd80e41d8656d611e3f2472249c0e7363848747864736f6c63430008130033",
  "linkReferences": {},
  "deployedLinkReferences": {}
}